{
  "contractName": "Faucet",
  "abi": [
    {
      "inputs": [],
      "name": "numOfFunders",
      "outputs": [
        {
          "internalType": "uint256",
          "name": "",
          "type": "uint256"
        }
      ],
      "stateMutability": "view",
      "type": "function",
      "constant": true
    },
    {
      "inputs": [],
      "name": "owner",
      "outputs": [
        {
          "internalType": "address",
          "name": "",
          "type": "address"
        }
      ],
      "stateMutability": "view",
      "type": "function",
      "constant": true
    },
    {
      "stateMutability": "payable",
      "type": "receive",
      "payable": true
    },
    {
      "inputs": [
        {
          "internalType": "address",
          "name": "newOwner",
          "type": "address"
        }
      ],
      "name": "transferOwnership",
      "outputs": [],
      "stateMutability": "nonpayable",
      "type": "function"
    },
    {
      "inputs": [],
      "name": "log",
      "outputs": [
        {
          "internalType": "bytes32",
          "name": "",
          "type": "bytes32"
        }
      ],
      "stateMutability": "pure",
      "type": "function",
      "constant": true
    },
    {
      "inputs": [],
      "name": "addFunds",
      "outputs": [],
      "stateMutability": "payable",
      "type": "function",
      "payable": true
    },
    {
      "inputs": [
        {
          "internalType": "uint256",
          "name": "withdrawAmount",
          "type": "uint256"
        }
      ],
      "name": "withdraw",
      "outputs": [],
      "stateMutability": "nonpayable",
      "type": "function"
    },
    {
      "inputs": [],
      "name": "getAllFunders",
      "outputs": [
        {
          "internalType": "address[]",
          "name": "",
          "type": "address[]"
        }
      ],
      "stateMutability": "view",
      "type": "function",
      "constant": true
    },
    {
      "inputs": [
        {
          "internalType": "uint8",
          "name": "index",
          "type": "uint8"
        }
      ],
      "name": "getFunderAtIndex",
      "outputs": [
        {
          "internalType": "address",
          "name": "",
          "type": "address"
        }
      ],
      "stateMutability": "view",
      "type": "function",
      "constant": true
    }
  ],
  "bytecode": "0x608060405234801561001057600080fd5b50336000806101000a81548173ffffffffffffffffffffffffffffffffffffffff021916908373ffffffffffffffffffffffffffffffffffffffff160217905550610b73806100606000396000f3fe60806040526004361061007f5760003560e01c80638da5cb5b1161004e5780638da5cb5b14610147578063a26759cb14610172578063af7f2c9b1461017c578063f2fde38b146101a757610086565b80630a93cf331461008b5780632e1a7d4d146100c857806351973ec9146100f15780636fbbb55d1461011c57610086565b3661008657005b600080fd5b34801561009757600080fd5b506100b260048036038101906100ad91906106b0565b6101d0565b6040516100bf919061071e565b60405180910390f35b3480156100d457600080fd5b506100ef60048036038101906100ea919061076f565b610210565b005b3480156100fd57600080fd5b50610106610335565b60405161011391906107b5565b60405180910390f35b34801561012857600080fd5b5061013161035d565b60405161013e919061088e565b60405180910390f35b34801561015357600080fd5b5061015c610457565b604051610169919061071e565b60405180910390f35b61017a61047b565b005b34801561018857600080fd5b5061019161059b565b60405161019e91906108bf565b60405180910390f35b3480156101b357600080fd5b506101ce60048036038101906101c99190610906565b6105a1565b005b6000600360008360ff16815260200190815260200160002060009054906101000a900473ffffffffffffffffffffffffffffffffffffffff169050919050565b60008054906101000a900473ffffffffffffffffffffffffffffffffffffffff1673ffffffffffffffffffffffffffffffffffffffff163373ffffffffffffffffffffffffffffffffffffffff161461029e576040517f08c379a0000000000000000000000000000000000000000000000000000000008152600401610295906109b6565b60405180910390fd5b8067016345785d8a00008111156102ea576040517f08c379a00000000000000000000000000000000000000000000000000000000081526004016102e190610a48565b60405180910390fd5b3373ffffffffffffffffffffffffffffffffffffffff166108fc839081150290604051600060405180830381858888f19350505050158015610330573d6000803e3d6000fd5b505050565b60007f4661756365740000000000000000000000000000000000000000000000000000905090565b6060600060015467ffffffffffffffff81111561037d5761037c610a68565b5b6040519080825280602002602001820160405280156103ab5781602001602082028036833780820191505090505b50905060005b60015481101561044f576003600082815260200190815260200160002060009054906101000a900473ffffffffffffffffffffffffffffffffffffffff1682828151811061040257610401610a97565b5b602002602001019073ffffffffffffffffffffffffffffffffffffffff16908173ffffffffffffffffffffffffffffffffffffffff1681525050808061044790610af5565b9150506103b1565b508091505090565b60008054906101000a900473ffffffffffffffffffffffffffffffffffffffff1681565b6000339050600260008273ffffffffffffffffffffffffffffffffffffffff1673ffffffffffffffffffffffffffffffffffffffff16815260200190815260200160002060009054906101000a900460ff16610598576000600160008154809291906104e690610af5565b9190505590506001600260008473ffffffffffffffffffffffffffffffffffffffff1673ffffffffffffffffffffffffffffffffffffffff16815260200190815260200160002060006101000a81548160ff021916908315150217905550816003600083815260200190815260200160002060006101000a81548173ffffffffffffffffffffffffffffffffffffffff021916908373ffffffffffffffffffffffffffffffffffffffff160217905550505b50565b60015481565b60008054906101000a900473ffffffffffffffffffffffffffffffffffffffff1673ffffffffffffffffffffffffffffffffffffffff163373ffffffffffffffffffffffffffffffffffffffff161461062f576040517f08c379a0000000000000000000000000000000000000000000000000000000008152600401610626906109b6565b60405180910390fd5b806000806101000a81548173ffffffffffffffffffffffffffffffffffffffff021916908373ffffffffffffffffffffffffffffffffffffffff16021790555050565b600080fd5b600060ff82169050919050565b61068d81610677565b811461069857600080fd5b50565b6000813590506106aa81610684565b92915050565b6000602082840312156106c6576106c5610672565b5b60006106d48482850161069b565b91505092915050565b600073ffffffffffffffffffffffffffffffffffffffff82169050919050565b6000610708826106dd565b9050919050565b610718816106fd565b82525050565b6000602082019050610733600083018461070f565b92915050565b6000819050919050565b61074c81610739565b811461075757600080fd5b50565b60008135905061076981610743565b92915050565b60006020828403121561078557610784610672565b5b60006107938482850161075a565b91505092915050565b6000819050919050565b6107af8161079c565b82525050565b60006020820190506107ca60008301846107a6565b92915050565b600081519050919050565b600082825260208201905092915050565b6000819050602082019050919050565b610805816106fd565b82525050565b600061081783836107fc565b60208301905092915050565b6000602082019050919050565b600061083b826107d0565b61084581856107db565b9350610850836107ec565b8060005b83811015610881578151610868888261080b565b975061087383610823565b925050600181019050610854565b5085935050505092915050565b600060208201905081810360008301526108a88184610830565b905092915050565b6108b981610739565b82525050565b60006020820190506108d460008301846108b0565b92915050565b6108e3816106fd565b81146108ee57600080fd5b50565b600081359050610900816108da565b92915050565b60006020828403121561091c5761091b610672565b5b600061092a848285016108f1565b91505092915050565b600082825260208201905092915050565b7f6f6e6c79206f776e65722063616e2063616c6c20746869732066756e6374696f60008201527f6e00000000000000000000000000000000000000000000000000000000000000602082015250565b60006109a0602183610933565b91506109ab82610944565b604082019050919050565b600060208201905081810360008301526109cf81610993565b9050919050565b7f43616e6e6f742077697464726177206d6f7265207468616e20302e312065746860008201527f6572000000000000000000000000000000000000000000000000000000000000602082015250565b6000610a32602283610933565b9150610a3d826109d6565b604082019050919050565b60006020820190508181036000830152610a6181610a25565b9050919050565b7f4e487b7100000000000000000000000000000000000000000000000000000000600052604160045260246000fd5b7f4e487b7100000000000000000000000000000000000000000000000000000000600052603260045260246000fd5b7f4e487b7100000000000000000000000000000000000000000000000000000000600052601160045260246000fd5b6000610b0082610739565b91507fffffffffffffffffffffffffffffffffffffffffffffffffffffffffffffffff8203610b3257610b31610ac6565b5b60018201905091905056fea2646970667358221220188b7947a9ee37388e6af38f63e643703b4174289695fa42d8db3aa26b93f96164736f6c634300080d0033",
  "immutableReferences": {},
  "source": "// SPDX-License-Identifier: MIT\npragma solidity >=0.4.22 <0.9.0;\n\nimport \"./IFaucet.sol\";\nimport \"./Owned.sol\";\nimport \"./Logger.sol\";\n\ncontract Faucet is Owned, Logger, IFaucet {\n  uint public numOfFunders;\n  mapping(address => bool) private funders;\n  mapping(uint => address) private lutFunders;\n\n  // private -> can be accesible only within the smart contract\n  // internal -> can be acessible within smart contract and also derived smart contract\n  \n  receive() external payable {}\n\n  modifier limitWithdraw(uint withdrawAmount) {\n    require(withdrawAmount <= 100000000000000000, \"Cannot witdraw more than 0.1 ether\");\n    _;\n  }\n\n  function transferOwnership(address newOwner) external onlyOwner {\n    owner = newOwner;\n  }\n\n  // override for abstracts\n  // pure cant modify state\n  function log() public override pure returns (bytes32) {\n    return \"Faucet\";\n  }\n\n\n  function addFunds() external override payable {\n    address funder = msg.sender;\n    \n    if (!funders[funder]) {\n      uint index = numOfFunders++;\n\n      funders[funder] = true;\n      lutFunders[index] = funder;\n    }\n  }\n\n  /**\n    truffle migrate --reset\n    truffle console\n    const instance = await Faucet.deployed()\n    instance.addFunds({ from: accounts[0], value: \"5000000000000000000\"})\n    instance.withdraw(\"1000000000000000000\", { from: accounts[0] })\n    instance.withdraw(\"100000000000000000\", { from: accounts[0] })\n   */\n\n  function withdraw(uint withdrawAmount) override external onlyOwner limitWithdraw(withdrawAmount) {\n    payable(msg.sender).transfer(withdrawAmount);\n  }\n\n  function getAllFunders() external view returns(address[] memory) {\n    address[] memory _funders = new address[](numOfFunders);\n\n    for (uint i = 0; i < numOfFunders; i++) {\n      _funders[i] = lutFunders[i];\n    }\n\n    return _funders;\n  }\n\n  function getFunderAtIndex(uint8 index) external view returns(address) {\n    return lutFunders[index];\n  }\n}",
  "sourcePath": "/home/welliton/welliton/blockchain/faucet2/faucet/contracts/FaucetContract.sol",
  "compiler": {
    "name": "solc",
    "version": "0.8.13+commit.abaa5c0e.Emscripten.clang"
  },
  "schemaVersion": "3.4.6",
  "updatedAt": "2022-05-10T13:23:24.369Z",
  "networkType": "ethereum",
  "devdoc": {
    "kind": "dev",
    "methods": {},
    "version": 1
  },
  "userdoc": {
    "kind": "user",
    "methods": {
      "withdraw(uint256)": {
        "notice": "truffle migrate --reset truffle console const instance = await Faucet.deployed() instance.addFunds({ from: accounts[0], value: \"5000000000000000000\"}) instance.withdraw(\"1000000000000000000\", { from: accounts[0] }) instance.withdraw(\"100000000000000000\", { from: accounts[0] })"
      }
    },
    "version": 1
  }
}